:1007D8000A128A11EF2B0317831688018901031364
:1007E8008316850187018901091481130313831274
:1007F80085018701640083018A010808F100031953
:10080800242C0608F0000918122CF400F5017108D0
:100818007402031C292CF400F50A0B2CF50008308F
:10082800FA00F401F50DF40D71087402031C1F2C75
:100838007514F400202C75100310FA0B162C292CB3
:10084800F5010608F40089142A2C89107408F300AD
:1008580087007508F200850007308A0073080F3991
:10086800EF27F800730E0F39EF27F90072080F39D8
:0E087800EF27F600720E0F39EF27F700FE2B68
:100FDE0082073034313432343334343435343634A9
:100FEE00373438343934413442344334443445345C
:020FFE00463477
:04400E00FC3FFF3F35
:00000001FF
