:08000000803102288731FB2F3B
:100F04008230220097000800163021009700080064
:100F1400383021009900980122009601080083309E
:100F240021009E009B019C0101309D000800873137
:100F3400A927873187318A278731873186278731E7
:100F44008731822787318731912787310800220032
:100F54008C018D01F73021008C00FF308D00FE30B4
:100F640023008D001F308C0024008D018C01210092
:100F7400951722009D019E010800F3007308F200FA
:100F8400F20DF20D21001D087206833972069D00D0
:100F94001D1421009D149D18D02FD12FCD2F1C0876
:100FA400F1001B08F00008008731992787310130D0
:100FB4008731BF2787317108F5007008F4000130CC
:100FC40075022C30031974020318E92FEA2FED2F50
:100FD40022008C15D92F0330750285300319740251
:100FE400031CF52FF62FD92F22008C11D92F803115
:0C0FF4000228F601F70120008731D62FFB
:020000040001F9
:04000E00E43FFF3E8E
:00000001FF
