:04000000803119280A
:1000060008007E1480310B1F09280A2817282100B2
:10001600111C0E280F2817282000111C132814283D
:1000260017288931DD2180317E10090080311B2897
:100036002100893161218031E400893162218031DA
:10004600E500893163218031E60089316421803100
:10005600E700C9308400003085001B3089317C21DF
:1000660080312200BF017E1020008B31EC2B200056
:1000760035088039BF003535C500B41F43284428EC
:10008600452845144508031949284A285928450A88
:10009600031D4E284F2857280030B5000030B40005
:1000A6000030B3000030B200B41761280030B5004C
:1000B6000030B4000030B3000030B2003908803997
:1000C600BA003A08BF063935C400B81F6B286C2839
:1000D6006D28441444080319712872288128440A9B
:1000E600031D762877287F280030B9000030B80035
:1000F6000030B7000030B600B81789280030B900C4
:100106000030B8000030B7000030B60044080319CC
:100116008D288E2893284508031D922893289C280D
:100126000030B5000030B4000030B3000030B2003B
:10013600742A3208F00038088A3147228031710863
:100146002000CB007008CA004A08BA00BB01BC01F7
:10015600BD013D08C3003C08C2003B08C1003A0887
:10016600C0004B08BA00BB01BC01BD013D08C90077
:100176003C08C8003B08C7003A08C6003308F00030
:1001860037088A314722803171082000CB00700879
:10019600CA004A08BA00BB01BC01BD013A08C00743
:1001A6003B08C13D3C08C23D3D08C33D4B08BA0073
:1001B600BB01BC01BD013A08C6073B08C73D3C0868
:1001C600C83D3D08C93D3408F00036088A3147224B
:1001D600803171082000CB007008CA004A08BA00B6
:1001E600BB01BC01BD013A08C0073B08C13D3C0844
:1001F600C23D3D08C33D4B08BA00BB01BC01BD0171
:100206003A08C6073B08C73D3C08C83D3D08C93DFE
:100216000830C035C10DC20DC30D890B0C2933083A
:10022600F00036088A314722803171082000CB0061
:100236007008CA004A08C0074B08C13D0030C23DDD
:10024600C33D3208F00037088A31472280317108F1
:100256002000CB007008CA004A08C0074B08C13D01
:100266000030C23DC33D0830C035C10DC20DC30DBF
:10027600890B37293208F00036088A314722803147
:1002860071082000CB007008CA004A08C0074B0856
:10029600C13D0030C23DC33D3308F00038088A3105
:1002A6004722803171082000CB007008CA004A0836
:1002B600C6074B08C73D0030C83DC93D3408F000AD
:1002C60037088A314722803171082000CB00700838
:1002D600CA004A08C6074B08C73D0030C83DC93D9D
:1002E6003408F00038088A3147228031710820002E
:1002F600CB007008CA004A08BA004B08BB00BC0114
:10030600BD010830BA35BB0DBC0DBD0D890B852965
:100316003A08C6073B08C73D3C08C83D3D08C93DED
:100326004008BA004108BB004208BC004308BD00B3
:100336001830BD36BC0CBB0CBA0C890B9C293A088C
:10034600C6073B08C73D3C08C83D3D08C93D0830C7
:10035600C035C10DC20DC30D890BAB294508440735
:10036600BA00BB01BB0D3A08823ECA00FF303B3DD6
:10037600CB00D4290130C635C70DC80DC90D890B70
:10038600BE29C31FC729C829C92946140130C0354B
:10039600C10DC20DC30D890BCA29FF30CA07FF3034
:1003A600CB3DC81FD729D829BD29C401C31FDC29C5
:1003B600DD29F929FF304005BA00FF304105BB00B1
:1003C600FF304205BC007F304305BD003D083C04BC
:1003D6003B043A040319F029F129F429C401C40A9B
:1003E600F929461CF729F829F929F129440803199E
:1003F600FD29FE29262A0130C6070030C73D0030F8
:10040600C83D0030C93D491C092A0A2A262A460841
:10041600BA004708BB004808BC004908BD000130C7
:10042600BE00BD37BC0CBB0CBA0CBE0B142A3D0873
:10043600C9003C08C8003B08C7003A08C60001309E
:10044600CA070030CB3D4B08803ABA0080303A02EA
:10045600031D2F2AFF304A02031C322A332A3D2A63
:100466007F302000C9008030C8000030C70000304F
:10047600C600682A20004B08803ABA0080303A024B
:10048600031D472A01304A0203184A2A4B2A562AD4
:1004960000302000C9000030C8000030C70000301E
:1004A600C600BF01682A20004A08C500FF30C605FD
:1004B600FF30C7057F30C8050030C905451C642AD2
:1004C600652A662AC8174536C9003F08BA003A08A1
:1004D600C9044908B5004808B4004708B3004608EF
:1004E600B200080080340034003400340034003494
:1004F6000034003440340034003400340034003416
:100506000034003420340034003400340034003425
:100516000034003410340034003400340034003425
:10052600003400340834003400340034003400341D
:100536000034003404340034003400340034003411
:100546000034003402340034003400340034003403
:1005560000340034013400340034003400340034F4
:100566000034003400348034003400340034003465
:100576000034003400344034003400340034003495
:1005860000340034003420340034003400340034A5
:1005960000340034003410340034003400340034A5
:1005A600003400340034083400340034003400349D
:1005B6000034003400340434003400340034003491
:1005C6000034003400340234003400340034003483
:1005D6000034003400340134003400340034003474
:1005E60000340034003400348034003400340034E5
:1005F6000034003400340034403400340034003415
:100606000034003400340034203400340034003424
:100616000034003400340034103400340034003424
:10062600003400340034003408340034003400341C
:100636000034003400340034043400340034003410
:100646000034003400340034023400340034003402
:1006560000340034003400340134003400340034F3
:100666000034003400340034003480340034003464
:100676000034003400340034003440340034003494
:1006860000340034003400340034203400340034A4
:1006960000340034003400340034103400340034A4
:1006A600003400340034003400340834003400349C
:1006B6000034003400340034003404340034003490
:1006C6000034003400340034003402340034003482
:1006D6000034003400340034003401340034003473
:1006E60000340034003400340034003480340034E4
:1006F6000034003400340034003400344034003414
:100706000034003400340034003400342034003423
:100716000034003400340034003400341034003423
:10072600003400340034003400340034083400341B
:10073600003400340034003400340034043400340F
:100746000034003400340034003400340234003401
:1007560000340034003400340034003401340034F2
:100766000034003400340034003400340034803463
:100776000034003400340034003400340034403493
:1007860000340034003400340034003400342034A3
:1007960000340034003400340034003400341034A3
:1007A600003400340034003400340034003408349B
:1007B600003400340034003400340034003404348F
:1007C6000034003400340034003400340034023481
:1007D6000034003400340034003400340034013472
:1007E6000034003400340034003400340034003463
:1007F60080340034003400340034003400340034D3
:100806004034003400340034003400340034003402
:100816002034003400340034003400340034003412
:100826001034003400340034003400340034003412
:10083600083400340034003400340034003400340A
:1008460004340034003400340034003400340034FE
:1008560002340034003400340034003400340034F0
:1008660001340034003400340034003400340034E1
:100876000034803400340034003400340034003452
:100886000034403400340034003400340034003482
:100896000034203400340034003400340034003492
:1008A6000034103400340034003400340034003492
:1008B600003408340034003400340034003400348A
:1008C600003404340034003400340034003400347E
:1008D6000034023400340034003400340034003470
:1008E60000340134FF34FF34FF34FF34FF34FF3467
:1008F600FF34FF3400340034003400340034003454
:100906000034003420004F088039DC004F35DE000B
:10091600CE1F8E2C8F2C902C5E145E080319942CFF
:10092600952CA52C5E0A031D992C9A2CA22C00301E
:10093600CF000030CE000030CD000030CC00CE1706
:10094600CF01AD2C0030CF000030CE000030CD00FE
:100956000030CC0053088039DD005D085C060319C1
:10096600B52CB62CB72C5C175335DD00D21FBC2C2A
:10097600BD2CBE2C5D145D080319C22CC32CD32CD0
:100986005D0A031DC72CC82CD02C0030D3000030C4
:10099600D2000030D1000030D000D217D301DB2CBA
:1009A6000030D3000030D2000030D1000030D0003B
:1009B6005E085D020318E02CE12C072D5C1FE42C79
:1009C600E52CE92C8030D4005408DC065E08DF00F4
:1009D6005D08DE005F08DD004C08DF005008CC0033
:1009E6005F08D0004D08DF005108CD005F08D10038
:1009F6004E08DF005208CE005F08D2004F08DF0025
:100A06005308CF005F08D300DF015D08D400D5018D
:100A16005508D7005E085402D600031CD7035708B2
:100A2600803AD80080305802031D1B2D1A3056021A
:100A3600031C1E2D1F2D512D20004F084E044D0462
:100A46004C04031D272D292D01302A2D0030DF00EF
:100A56000030CF000030CE000030CD000030CC009A
:100A66005D08DE00582D5F1C392D3A2D3E2D5F3670
:100A76000138DF00402D0310DF0C4C1C432D442DA4
:100A8600452DDF170130D400CF37CE0CCD0CCC0C62
:100A9600D40B472D0130D4005408DE0720005D0832
:100AA6005E02031C572D582D362D5C1B5B2D5C2DCD
:100AB600922D5E08031D602D612D6A2D0030CF003A
:100AC6000030CE000030CD000030CC008C2E500817
:100AD600CC075108CD3D5208CE3D5308CF3D4F1CA3
:100AE600752D762D1E2E5F1C792D7A2D7E2D5F3667
:100AF6000138DF00802D0310DF0C4C1C832D842D64
:100B0600852DDF170130D400CF37CE0CCD0CCC0CA1
:100B1600D40B872D0130D4005408DE071E2E4F0853
:100B2600803AD4005308803A5402031DA42D52087B
:100B36004E02031DA42D51084D02031DA42D50087D
:100B46004C020318A72DA82DE02DFF30D400FF304E
:100B5600D500FF30D600FF30D7004C085002D80031
:100B66004D08513BD9004E08523BDA004F08533B23
:100B7600DB005808D4075908D53D5A08D63D5B080E
:100B8600D73D5708CF005608CE005508CD0054086B
:100B9600CC008030D4005408DC06DF09DF0A5F0889
:100BA600031DD62DD72DE82D0130CC070030CD3DC5
:100BB6000030CE3D0030CF3DE82D5008CC02510824
:100BC600CD3B5208CE3B5308CF3B4F084E044D0455
:100BD6004C04031DEF2DF02D1A2E5F08031DF42D76
:100BE600F52D1A2E0030CF000030CE000030CD009B
:100BF6000030CC008C2E0130CC35CD0DCE0DCF0D76
:100C0600890BFF2DDF1F082E092E0A2E4C145F1CA0
:100C16000D2E0E2E112E0314DF0D132E0310DF0DD5
:100C26005E080319172E182E1A2E0130DE02CE1F6B
:100C36001D2E1E2EFE2DDD01DF1F222E232E312E10
:100C46005F087F390319282E292E2C2EDD01DD0A97
:100C5600312E4C1C2F2E302E312E292E5D080319D5
:100C6600352E362E632E0130CC070030CD3D0030B8
:100C7600CE3D0030CF3D4F1C412E422E632E4C08F8
:100C8600D4004D08D5004E08D6004F08D7000130D5
:100C9600D800D737D60CD50CD40CD80B4C2E570809
:100CA600CF005608CE005508CD005408CC005E0A89
:100CB60003195E2E5F2E632E0130D4005408DE0722
:100CC6005E0A0319672E682E6D2E5E08031D6C2EB4
:100CD6006D2E7B2E0030CF000030CE000030CD00D0
:100CE6000030CC005E08031D792E7A2E7B2EDC01A7
:100CF6005E1C7E2E7F2E812ECE17852E7F30D40051
:100D06005408CE055E36CF00DC1F8A2E8B2E8C2E25
:100D1600CF1708002000AC002C080319932E942E40
:100D2600A82EA71F972E982EA82E2409AE002509B7
:100D3600AF002609B0002709B100AE0A0319AF0AB1
:100D46000319B00A0319B10AB02E2708B100260804
:100D5600B0002508AF002408AE00270826042504A5
:100D66002404031DB72EB82EC12E0030A700003074
:100D7600A6000030A5000030A400372F9630AD0045
:100D8600CF2E0130A8002808AD070130B136B00CCF
:100D9600AF0CAE0C890BC92EFE303105031DD42EC7
:100DA600D52EC42EE92E0130A8002808AD07013043
:100DB600AE070030AF3D0030B03D0030B13D0130F0
:100DC600B136B00CAF0CAE0C890BE32EFF303105FB
:100DD600031DEE2EEF2ED62EF92E0130AD02013078
:100DE600AE35AF0DB00DB10D890BF32EB01BFC2E39
:100DF600FD2E032F02302D020318022F032FF02E93
:100E06002D18062F072F0F2FFF30AE05FF30AF0529
:100E16007F30B005FF30B1050310AD0C2D08A800DA
:100E2600A901AA01AB011830A835A90DAA0DAB0D71
:100E3600890B172F2808AE042908AF042A08B00426
:100E46002B08B1042C080319292F2A2F2F2FA71F8F
:100E56002D2F2E2F2F2FB1173108A7003008A600EF
:100E66002F08A5002E08A400080000307005F80021
:100E760000307105F90080307205FA007F30730585
:100E8600FB007B087A0479047804031D4B2F4C2F52
:100E9600542F0030F3000030F2000030F100003033
:100EA600F00000307405F80000307505F900803058
:100EB6007605FA007F307705FB007B087A04790413
:100EC6007804031D672F682F702F0030F70000305D
:100ED600F6000030F5000030F400F31F732F742F76
:100EE6008C2F0030F8000030F9000030FA00803016
:100EF600FB007008F8027108F93B7208FA3B7308A8
:100F0600FB3B7B08F3007A08F2007908F1007808C9
:100F1600F000F71F8F2F902FA82F0030F800003019
:100F2600F9000030FA008030FB007408F8027508FA
:100F3600F93B7608FA3B7708FB3B7B08F7007A0813
:100F4600F6007908F5007808F4008030F306803062
:100F5600F70677087302031DBA2F76087202031D7F
:100F6600BA2F75087102031DBA2F74087002031890
:100F7600BD2FBE2FC02F0310C12F03140800200061
:100F8600A500A201A401A6012608A1002608A30027
:100F96000130A0002008A60708302602031CD42F23
:100FA600D52FC72F083025020318DA2FDB2FE72F9E
:100FB6002508A1000130A0007D0AE22FA035890B8B
:100FC600E12F2008A200F32F2508F93EA3000130E7
:100FD600A0007D0AEF2FA035890BEE2F2008A40074
:100FE6002130F6000030F7000430F8000030F90038
:100FF60000308B31752387310800093400340A34F8
:1010060000340B3407340C3401340F3401340F34FC
:1010160000340034003400344B340134403401349D
:02102600003494
:1012BA001630210097000800013401341934013432
:1012CA002000110E890C0139080022002108BA00F9
:1012DA002008B900080022002108BE002008BD002D
:1012EA00080022002108BC002008BB000800640096
:1012FA0080010131890B7D29003478302100990061
:10130A009801220096010800220021082100E90024
:10131A00220020082100E800080073087204710402
:10132A007004031999299A299C298030F306080028
:10133A0040302400940001309500013092002100D1
:10134A000D122400951208002000911EAD29AE2925
:10135A00A9292200BF0123009D1CB429B529B72958
:10136A001D121D16190808002000181DBD29BE29C6
:10137A00C529181071089700700896001814C92911
:10138A007108970070089600080089319D218931FB
:10139A008931F421893189318221893189315D216B
:1013AA0089318A310C2289318A318D2289310800AA
:1013BA002000111021005208F1005108F000893173
:1013CA00B92189312100680869040319ED29EE2938
:1013DA00F32969088A0068080A008931080022008E
:1013EA008C018D01BF3021008C00EF308D00C83098
:1013FA0023008D001F308C0024008D018C012100F8
:10140A009517C03022009D0001309E000800200080
:10141A0099013C309700B03096001110170821004E
:10142A00D200200016082100D10011140330220036
:10143A00A0000030A100893189218A3111302000B1
:10144A009800080080302000E3066708CF0066088D
:10145A00CE006508CD006408CC006308D30062089A
:10146A00D2006108D1006008D000843185248A3115
:10147A0020004F08E3004E08E2004D08E1004C0846
:10148A00E0000800F800F401F5017008F200F30129
:10149A007208F6007308F700781C542A552A592A4C
:1014AA007608F4077708F53D0130F635F70D890B14
:1014BA005A2A0310F80C7808031D642A652A512A4F
:1014CA007508F1007408F000080021006408031987
:1014DA006F2A702A752A8C31DC248A312100E401B2
:1014EA005508C700C8014E084806031D7E2A4D0844
:1014FA004706031D812A822A882A8D31B6258A3118
:10150A002100CD01CE010130CD070030CE3D0800CB
:10151A00083023009F0090309D0024309E00223026
:10152A009B009C0100302200A0000030A1008931FC
:10153A0070218A3100302200A0000030A1008931D8
:10154A0076218A3100302200A0000030A1008931C2
:10155A006A218A312200BF0108007108F50070086B
:10156A00F400CF2A74088600750887000108240051
:10157A0091002000911DC22AC32ABE2A9111740823
:10158A008600750887002400110881000130F407DD
:10159A000030F53D0130F2020030F33B720A031DC0
:1015AA00DA2A730A031DDA2ADB2AB72A080022007C
:1015BA002108A5002008A400FC2A24088600250882
:1015CA0087000108240091002000911DED2AEE2ACF
:1015DA00E92A9111220024088600250887002400A0
:1015EA001108810001302200A4070030A53D013016
:1015FA00A2020030A33B220A031D072B230A031D64
:10160A00072B082BE22A08000030FB000030FA0002
:10161A000030F9000030F800701C142B152B1D2B1C
:10162A007408F8077508F93D7608FA3D7708FB3D16
:10163A000130F435F50DF60DF70D890B1E2B01302F
:10164A00F336F20CF10CF00C890B252B730872049B
:10165A0071047004031D322B332B112B7B08F3000A
:10166A007A08F2007908F1007808F00008002200F0
:10167A00AC00432B8D11532B0C12532B2C08AA00B0
:10168A00AB012B08003A03194B2B532B2A08003ABB
:10169A0003193F2B013A0319412B532B2708A100A9
:1016AA002608A0002908A3002808A2008A31DC2203
:1016BA008B31632B8D15742B0C16742B22002C087E
:1016CA00AA00AB012B08003A03196C2B742B2A08C9
:1016DA00003A03195F2B013A0319612B742B080096
:1016EA00FC007D2B22008D118D2B22000C128D2BDC
:1016FA007C08FA00FB017B08003A0319852B8D2B25
:10170A007A08003A0319772B013A03197A2B8D2BA1
:10171A007708F1007608F0007908F3007808F200FB
:10172A008A31B2228B319F2B22008D15AF2B2200DA
:10173A000C16AF2B7C08FA00FB017B08003A031950
:10174A00A72BAF2B7A08003A0319992B013A0319F0
:10175A009C2BAF2B080021006308F3006208F200FB
:10176A006108F1006008F0004C30F7009530F6008F
:10177A007F30F5002D30F4008B3109238B31013095
:10178A0070072100E0000030713DE1000030723D39
:10179A00E2000030733DE30060082000A000210051
:1017AA0061082000A100210062082000A200210097
:1017BA0063082000A3001130A336A20CA10CA00CD0
:1017CA00890BE12B2108FD002008FC000800893163
:1017DA00CA218B316A302200A0000A30A100893167
:1017EA0089218B3122008D150C1600308C31812411
:1017FA008B318C3129248B3115302200B7004B30C4
:10180A00B600BE30890B072CB60B072CB70B072C7A
:10181A0000008B170B17893165218B31003A0319A8
:10182A00172C182C102C8931A9218B312200B800D1
:10183A0055303806031D222C232C102C2100E401DC
:10184A00E40A102C803119282200B301B401B50131
:10185A0035082F3E8600013087003308003E840099
:10186A0088300318013E8500000881003508013ED2
:10187A002F3E8600013087003308013E84008830FD
:10188A000318013E8500000881003508023EB500B4
:10189A0004303502031C522C532C2D2C3308023EE3
:1018AA00B3002F30A6000130A7000430A800003092
:1018BA00A90000308B313C238C31043022003406DD
:1018CA00031D682C692C752C11302200AE003C30A7
:1018DA00AD00CB30890B6F2CAD0B6F2CAE0B6F2C80
:1018EA0001302200AD002D08B40706303402031C73
:1018FA007F2C802C2C2C08002200A3002400951A8F
:10190A00872C882CDB2C22002308A000A101A035FB
:10191A00A10DA035A10D1130200784000830213D0A
:10192A008038850000082400940022002308A000C3
:10193A00A101A035A10DA035A10D1030200784000A
:10194A000830213D80388500000824009500960162
:10195A0022002308A000A101A035A10DA035A10DE8
:10196A001230200784000830213D803885000008A5
:10197A002400920022002308A000A101A035A10D95
:10198A00A035A10D1330200784000830213D80388E
:10199A0085000008A200A20E21000D0822002206DE
:1019AA00EF39220621008D002400951608008B319C
:1019BA00B0238C317C080F392100D500BF302000BC
:1019CA00CF00CC30CE00CC30CD00CD30CC003D3075
:1019DA00B500CC30B400CC30B300CD30B2008B317E
:1019EA00B0238C311F307C052100C10000307D05F9
:1019FA00C20041082000A400210042082000A500DE
:101A0A00890D893B8909A600A700013086318D26F8
:101A1A008C3120002708B9002608B8002508B7002D
:101A2A002408B60080313A208C3120003508D300D2
:101A3A003408D2003308D1003208D000843185241A
:101A4A008C3120004F082100C60020004E082100DA
:101A5A00C50020004D082100C40020004C082100C8
:101A6A00C3004608BA004508B9004408B80043084C
:101A7A00B7008D3145258C3121003708D700080081
:101A8A0003102100390D3A0DC0004008031D4E2DE8
:101A9A004F2D582D0030BA000030B9000030B80080
:101AAA000030B700B52D3708BB003808BC0039082C
:101ABA00BD003A08BE001F30BE36BD0CBC0CBB0CC4
:101ACA00890B612D3B08BF00B917FF30B705FF30FE
:101ADA00B805FF30B9050030BA059630C002C01FFC
:101AEA00772D782D902D4008803A973E03187E2D49
:101AFA007F2D802D4F2D0130BA36B90CB80CB70C9A
:101B0A00890B812D0130BB003B08C007031D8E2DB8
:101B1A008F2D802DA52D20304002031C952D962D4A
:101B2A00A02D4F2D0130B735B80DB90DBA0D890B5F
:101B3A00982D0130C0024008031DA42DA52D972D14
:101B4A003F080319A92DAA2DB52DB709B809B90956
:101B5A00BA09B70A0319B80A0319B90A0319BA0A5A
:101B6A00080021005F080319BB2DBC2DC22D0F30C0
:101B7A005F06031DC12DC22DC42DE709E70A5F08C0
:101B8A006707DF0057084F07CF0050080318500AAD
:101B9A00D0005008803AC10080304102031DD72D81
:101BAA0001304F020318DA2DDB2DE02D2100D70971
:101BBA00D70ACF01D00121005008803AC1008030F5
:101BCA004102031DEA2D07304F02031CED2DEE2DB5
:101BDA00F52D2100D709D70A0730CF000030D000F1
:101BEA0021004F082000A400210050082000A50071
:101BFA00890D893B8909A600A700013086318D2607
:101C0A008D3120002708EB002608EA002508E900A4
:101C1A002408E8008E312F268D3120006B08210020
:101C2A00BA0020006A082100B900200069082100D2
:101C3A00B800200068082100B7008D3145258D3194
:101C4A0021003708DE005E08FD005F088731C227E1
:101C5A008D31080021004C08AD004B08AC004A0841
:101C6A00AB004908AA0020006B082100AD00200043
:101C7A006A082100AC00200069082100AB0020009E
:101C8A0068082100AA002A082000EC0021002B087D
:101C9A002000ED0021002C082000EE0021002D0874
:101CAA002000EF001730EF36EE0CED0CEC0C890B30
:101CBA00582EFF306C052100A800003020006D0569
:101CCA002100A9002908803A2000EC0080306C022B
:101CDA00031D722E963021002802031C752E762EC3
:101CEA00772EFF2F2100AD1B7B2E7D2E01307E2EFD
:101CFA000030B20032080319832E842E992E200058
:101D0A006B08F3006A08F2006908F1006808F0003D
:101D1A00893192218E3173082000EB007208EA00A3
:101D2A007108E9007008E80021002908803A2000BB
:101D3A00EC0080306C02031DA52E7E3021002802A3
:101D4A000318A82EA92EB32E00302000EB00003075
:101D5A00EA000030E9000030E800FF2F4B30200095
:101D6A00CF000030CE000030CD000030CC006B0830
:101D7A00D3006A08D2006908D1006808D00084310B
:101D8A0085248E3120004F082100B10020004E0822
:101D9A002100B00020004D082100AF0020004C08AF
:101DAA002100AE00CB302000CF000030CE00003042
:101DBA00CD000030CC00210031082000D3002100E2
:101DCA0030082000D20021002F082000D100210075
:101DDA002E082000D000843185248E3120004F083F
:101DEA002100A30020004E082100A20020004D0877
:101DFA002100A10020004C082100A00020006B084F
:101E0A00E3006A08E2006908E1006808E0002100CE
:101E1A0023082000E700210022082000E600210014
:101E2A0021082000E500210020082000E4008A3172
:101E3A0027228E31200063082100B60020006208A4
:101E4A002100B500200061082100B40020006008CC
:101E5A002100B3000030A7000030A6000030A50022
:101E6A000030A4003F30F3000030F2000030F100EF
:101E7A000030F0003608F7003508F6003408F5009F
:101E8A003308F400873138278E3103184D2F4E2F2F
:101E9A00582FBF302100A7008030A6000030A500CF
:101EAA000030A400792FBF30F3000030F200003078
:101EBA00F1000030F00021003608F7003508F6007E
:101ECA003408F5003308F400873138278E31031CB3
:101EDA006F2F702F792F3F302100A7008030A60086
:101EEA000030A5000030A40020006B08CF006A086B
:101EFA00CE006908CD006808CC0021003608200011
:101F0A00D300210035082000D20021003408200027
:101F1A00D100210033082000D000843185248E317D
:101F2A0020004F082100B10020004E082100B00017
:101F3A0020004D082100AF0020004C082100AE000F
:101F4A0027082000CF00210026082000CE0021000B
:101F5A0025082000CD00210024082000CC00210003
:101F6A0031082000D300210030082000D2002100CF
:101F7A002F082000D10021002E082000D000843133
:101F8A0085248E3120004F082100B60020004E081B
:101F9A002100B50020004D082100B40020004C08A3
:101FAA002100B30032080319DB2FDC2FF02F36088B
:101FBA00F3003508F2003408F1003308F0008931E3
:101FCA0092218E3173082100B6007208B50071089B
:101FDA00B4007008B30036082000EB002100350871
:101FEA002000EA00210034082000E900210033081B
:061FFA002000E8000800D1
:020000040001F9
:04000E00E43FFF3E8E
:00000001FF
