:08000000803102288731FD2F39
:100F780088302200970008001630210097000800EA
:100F8800A430220091002130920008008731D72731
:100F98008731CD2F803102283830210099009801FF
:100FA8002200960108008731E72787318731D0274B
:100FB80087318731C02787318731BC27873187310F
:100FC800C4278731080022008C018D01F7302100E9
:100FD8008C00FF308D00FE3023008D001F308C0008
:100FE80024008D018C012100951722009D019E018E
:080FF800080020008731CA2F18
:020000040001F9
:04000E00E43FFF3E8E
:00000001FF
