:0400000080312628FD
:100008007E1480318B1D09280A2812280B1C0D2804
:100018000E28122880319920803124280B1F15289A
:10002800162824282100921E1A281B28242820007C
:10003800921E1F28202824288031682080312428F7
:100048007E100900803128287E1020008031432846
:1000580022008C018D01F73021008C00FF308D00CB
:10006800FE3023008D001F308C0024008D018C0190
:100078002100951722009D019E018B1508008031F3
:10008800582080318B170B17492822008C15803196
:1000980091208031003A031952285328492820001A
:1000A800921649288031262880312C2080318031D1
:1000B8008220803180318920803180318D208031CB
:1000C800803176208031080022008C118031952003
:1000D8008031003A03197128722873287528200086
:1000E8009212080021009212943022009100A1304F
:1000F8009200200092122100921608003830210048
:1001080099009801220096010800163021009700F6
:1001180008008430220097000800220015080139E1
:0C0128000800220015080139080008003A
:020000040001F9
:04000E00E43FFF3E8E
:00000001FF
