:100F40000A128A11A32F031783168801890103133C
:100F5000831685018701811303138312850187019D
:100F600083016400F001F101F4010608F2000319A5
:100F7000C72F0808F3000319C72F0918CA2FF00755
:100F8000031CC32FF10A0310F20BBF2FDD2F8501C5
:100F90008701E22FF20C031CD52F03107308F00712
:100FA000031CD32FF10A7408F1070310F30DF40D9D
:100FB00072080319DC2FCA2FDD2F70088500710815
:100FC0008700E22F0408031DE72F203084007030D3
:100FD00004060319E52F0408F200803EF000831395
:100FE0000608800083170708800070088400050841
:100FF000800083130808800072088400840AB12FDF
:04400E00FC3FFF3F35
:00000001FF
