:100F82000A128A11C42F03178316880189010313D9
:100F9200831685016F3081000313831285010313C9
:100FA200831651308F000317831205308500031317
:100FB20083128101031383128B0183013230F20009
:100FC2004630F100F00164000B19F10BE42FFF3001
:100FD200F100F20BE42FED2F051085106400630081
:100FE200F00A7018F72F0514F001F82F85149130CC
:0E0FF20081003230F2004630F1000B11E42F86
:04400E00FC2FFF3F45
:00000001FF
