:08000000803102288731F42F42
:1008C80016302100970008002000110E890C01390C
:1008D80008007108FB007008FA0008007108F900A8
:1008E8007008F800080071082000D3007008D200D2
:1008F8000800640080010131890B7E2C00347030BF
:10090800210099009801220096010800F0002000BB
:10091800111E8F2C902C8B2C700823009A00080035
:10092800F0007008230091001513951315140000AA
:1009380000002300130808008431CF248431843157
:100948008324843184316424843185313F25843182
:1009580008002000911EB12CB22CAD2CFC01230004
:100968009D1CB72CB82CBA2C1D121D16190808008E
:10097800F200F101721CC12CC22CC42C7008F107C2
:100988000310F00D0310F20C7208031DCC2CCD2CB3
:10099800BE2C7108080022008C018D01FF30210057
:1009A8008C00FF308D00DA3023008D001F308C0062
:1009B80024008D018C0121009517803022009D00B4
:1009C80001309E000800F42C71088400720885002C
:1009D800000884318A2484310130F1070030F23D67
:1009E80071088400720885001200031DFC2CFD2C80
:1009F800E82C0D3084318A2484310800F40074080E
:100A080023009100730893009513151315150B0D0A
:100A18000B0D0139F5008B1355309600AA3096005E
:100A280095149518182D192D152D1511750C031CD5
:100A38008B1303188B170800F401F501701C252D82
:100A4800262D2A2D7208F4077308F53D0130F2357A
:100A5800F30D890B2B2D0130F136F00C890B302D5D
:100A680070087104031D392D3A2D222D7508F100E7
:100A78007408F0000800083023009F0090309D00A3
:100A880024309E0022309B009C010030F000003092
:100A9800F10084316D2485310030F0000030F10020
:100AA8008431722485310030F0000030F100843147
:100AB80077248531FC0108008431A0248531003079
:100AC800F1008830F2008431E724853184316824CC
:100AD8008531003A0319712D722D8D2D8431AD2485
:100AE80085312000B800370803197B2D7C2D6A2D2D
:100AF8000D303806031D812D822D872DB7018531D4
:100B0800AD2585316A2DB7010D3084318A248531B0
:100B18006A2D4130200038060319932D942DA62DF7
:100B28004C3038060319992D9A2DA62D50303806C9
:100B380003199F2DA02DA62D52303806031DA52D73
:100B4800A62D6A2D0130B7003808B6006A2D80310D
:100B58000228E42F3B083C040319B32DB42DBD2D06
:100B68000030843194248531243A031DBC2DBD2DD9
:100B7800C82DC130F1008830F2008431E724853176
:100B88002000BB01BC01222EDD30F1008830F200CC
:100B98008431E72485312000C401C501142E2000CA
:100BA8004508F1004408F0001630F2000030F30068
:100BB80085312025853171082000C0007008BF00EC
:100BC8000130C2000B2E3F08843194248531200067
:100BD800B8000D303806031DF22DF32DFA2D0D3017
:100BE80084318A2485312000C2010B2E2430380636
:100BF800031DFF2D002E022EB701102E3808843158
:100C08008A24853101302000BF070030C03D4208EA
:100C1800031D0F2E102EE72D0130C4070030C53DEF
:100C28004508803AF6003C08803A7602031D1E2EDD
:100C38003B084402031C212E222ED32D2000B7018D
:100C4800F32F3C08803AF60080307602031D2E2EE2
:100C58000A303B020318312E322E1C2F20003C088C
:100C6800F1003B08F0001630F2000030F300853147
:100C78002025853171082000C9007008C800D001FE
:100C8800D1010130C300F3014808853102258531BF
:100C980001302000C8070030C93DF330F10088302A
:100CA800F2008431E7248531EA2E843168248531C5
:100CB800003A0319602E612EEA2E8431AD24853165
:100CC8002000B8000D30380603196B2E6C2E732ED9
:100CD800153050065104031D722E732EDA2E51085A
:100CE800BE005008BD00882E2030F6000030F70006
:100CF80020005008760786005108773D870081015B
:100D08000130D0070030D13D5108803AF6008030DC
:100D18007602031D912E15305002031C942E952E39
:100D2800782E1F30F6000030F700200050087607B4
:100D380086005108773D87000D3081003E08D100BC
:100D48003D08D0002030F6000030F7005008760744
:100D580086005108773D87000D3081005008510406
:100D6800031DB72EB82ECE2E2030F6000030F70027
:100D78005008760786005108773D870024308100A7
:100D88005830F1008830F2008431E72485312000A2
:100D9800C301EA2E0130BB070030BC3DA230F10090
:100DA8008830F2008431E7248531CB2E2030F600DC
:100DB8000030F7005008760786005108773D870015
:100DC800380881000130D0070030D13D20004308A9
:100DD800031DEF2EF02E592ECE01CF012030F60044
:100DE8000030F70020004E08760786004F08773D50
:100DF80087000108C1004108F30048088531022531
:100E0800853101302000C8070030C93D0130CE07C8
:100E18000030CF3D4F08803AF60080307602031D3F
:100E2800172F16304E02031C1A2F1B2FF22E222EBC
:100E38007E30F1008830F2008431E7248531222E9B
:100E48003A08803AF6003C08803A7602031D2E2FB5
:100E58003B0839020318312F322FA42F0230F1003A
:100E68008930F2008431E724853120003A08F10006
:100E78003908F0001630F2000030F30085312025E3
:100E8800853171082000CB007008CA00CC01CD0163
:100E98004D08803AF60080307602031D552F163033
:100EA8004C02031C582F592F5A2F872F20004A080D
:100EB8008431942485312000B8000D303806031D94
:100EC800662F672F712F0D3084318A2485311730B2
:100ED8002000CC000030CD00822F24303806031DBE
:100EE800762F772F792FB701872F380884318A24F6
:100EF800853101302000CA070030CB3D0130CC07D6
:100F08000030CD3D4C2F20003A08F1003908F000A0
:100F18001630F2000030F300853120258531710844
:100F28002000CB007008CA005830F3004A08853109
:100F38000225853101302000B9070030BA3D222E44
:100F4800200039083A04031DAA2FAB2FB32FC13054
:100F5800F1008830F2008431E7248531222E3230C6
:100F6800F1008830F2008431E7248531222EC60151
:100F7800C701CF2F2430F3001630F00020004608B8
:100F88008431BC248531853102258531013020002A
:100F9800C6070030C73D4708803AF6003C08803A4B
:100FA8007602031DD92F3B084602031CDC2FDD2FD8
:100FB800BE2F2000BB01BC01B901BA01B701F32F54
:100FC80020003608413A0319252E0D3A0319AE2D93
:100FD8001C3A0319242F023A0319BB2FF32F0800D8
:100FE800FC0120308400003085001D3084317D24D0
:100FF800873120008531602D4C342D3445347834C8
:1010080069346234653420346C346934733474342C
:1010180061342C34203441342D3441346734653400
:101028006E34643461342C34203450342D345034CC
:1010380072346F34783469346D346F342C3420341E
:1010480052342D344134703461346734613420347F
:101058006C346934733474346134003454346F3408
:1010680064346F34733420346F347334203461340F
:10107800673465346E34643461346D3465346E3489
:1010880074346F347334203466346F34723461349A
:101098006D3420346134743465346E3464346934A6
:1010A80064346F34733400344E3461346F34203414
:1010B80066346F346934203470346F347334733465
:1010C8006934763465346C3420346134673465347B
:1010D8006E34643461347234203428346E346F349E
:1010E8006D3465342034763461347A3469346F343D
:1010F800293400344E3461346F3420346434693414
:10110800733470346F346E3465346D346F347334C3
:1011180020346434653420346D3461346934733474
:1011280020346134673465346E34643461346D342A
:1011380065346E3474346F34733400344F3420346F
:101148006134673465346E34643461346D346534C5
:101158006E3474346F342034643465342034663427
:101168006F34693420347234653461346C346934D2
:101178007A34613464346F3400344C3469347334F1
:101188007434613420346434653420346134673411
:1011980065346E34643461346D3465346E3474345B
:1011A8006F3473342034763461347A34693461347A
:1011B80000344C3469347334743461342034643406
:1011C800653420346134673465346E346434613492
:1011D8006D3465346E3474346F347334003444348D
:1011E8006934673469347434653420346F34203496
:1011F8006E346F346D3465343A340034503472349C
:101208006F34783469346D346F343A3420340034B0
:020000040001F9
:04000E00E43FFF3E8E
:00000001FF
