:04000000803119280A
:100008007E1480310B1F09280A2817282100111C8B
:100018000E280F2817282000111C13281428172829
:100028008631C92680317E10090080311B281530A1
:100038008400873085001200D0001200D100120021
:10004800D2001200D3001200D4001200D500FA0129
:10005800FB01CA01CB01CC01CD01CE01CF017E103D
:1000680020008431BB2C200029088039B3002935B1
:10007800B900A81F40284128422839143908031913
:10008800462847285628390A031D4B284C28542847
:100098000030A9000030A8000030A7000030A600FA
:1000A800A8175E280030A9000030A8000030A7007B
:1000B8000030A6002D088039B3062D35B400AC1FDA
:1000C8006628672868283414340803196C286D28B2
:1000D8007C28340A031D712872287A280030AD0064
:1000E8000030AC000030AB000030AA00AC17842808
:1000F8000030AD000030AC000030AB000030AA008A
:1001080034080319882889288E283908031D8D2862
:100118008E2897280030A9000030A8000030A700DA
:100128000030A600712A2608F2002C0886312E26F7
:10013800803173082000BF007208BE003E08AE0080
:10014800AF01B001B1013108B8003008B7002F087D
:10015800B6002E08B5003F08AE00AF01B001B101EE
:100168003108BD003008BC002F08BB002E08BA00BB
:100178002708F2002B0886312E26803173082000CC
:10018800BF007208BE003E08AE00AF01B001B10169
:100198002E08B5072F08B63D3008B73D3108B83DE1
:1001A8003F08AE00AF01B001B1012E08BA072F0811
:1001B800BB3D3008BC3D3108BD3D2808F2002A0887
:1001C80086312E26803173082000BF007208BE00D9
:1001D8003E08AE00AF01B001B1012E08B5072F08E7
:1001E800B63D3008B73D3108B83D3F08AE00AF0115
:1001F800B001B1012E08BA072F08BB3D3008BC3D3D
:100208003108BD3D0830B535B60DB70DB80D890BB1
:1002180007292708F2002A0886312E26803173081C
:100228002000BF007208BE003E08B5073F08B63D73
:100238000030B73DB83D2608F2002B0886312E263F
:10024800803173082000BF007208BE003E08B50761
:100258003F08B63D0030B73DB83D0830B535B60D5E
:10026800B70DB80D890B32292608F2002A08863105
:100278002E26803173082000BF007208BE003E0899
:10028800B5073F08B63D0030B73DB83D2708F20036
:100298002C0886312E26803173082000BF00720892
:1002A800BE003E08BA073F08BB3D0030BC3DBD3D1F
:1002B8002808F2002B0886312E268031730820008A
:1002C800BF007208BE003E08BA073F08BB3D0030B9
:1002D800BC3DBD3D2808F2002C0886312E26803111
:1002E80073082000BF007208BE003E08AE003F0839
:1002F800AF00B001B1010830AE35AF0DB00DB10D92
:10030800890B80292E08BA072F08BB3D3008BC3D51
:100318003108BD3D3508AE003608AF003708B000DB
:100328003808B1001830B136B00CAF0CAE0C890BE0
:1003380097292E08BA072F08BB3D3008BC3D310865
:10034800BD3D0830B535B60DB70DB80D890BA629DA
:1003580039083407AE00AF01AF0D2E08823EBE004B
:10036800FF302F3DBF00CF290130BA35BB0DBC0D82
:10037800BD0D890BB929B81FC229C329C4293A144C
:100388000130B535B60DB70DB80D890BC529FF304D
:10039800BE07FF30BF3DBC1FD229D329B829B401FD
:1003A800B81FD729D829F429FF303505AE00FF300A
:1003B8003605AF00FF303705B0007F303805B10093
:1003C800310830042F042E040319EB29EC29EF29F6
:1003D8000130B400F4293A1CF229F329F429EC2954
:1003E80034080319F829F9291F2A0130BA070030FF
:1003F800BB3DBC3DBD3D3D1C022A032A1F2A3A08CD
:10040800AE003B08AF003C08B0003D08B100013029
:10041800B200B137B00CAF0CAE0CB20B0D2A3108DC
:10042800BD003008BC002F08BB002E08BA00013000
:10043800BE070030BF3D3F08803AAE0080302E0234
:10044800031D282AFF303E02031C2B2A2C2A362A99
:100458007F302000BD008030BC000030BB00003081
:10046800BA00672A20003F08803AAE0080302E028A
:10047800031D402A01303E020318432A442A4F2A0A
:1004880000302000BD000030BC000030BB00003050
:10049800BA00B301672A20003E08B900FF30BA0548
:1004A800FF30BB057F30BC050030BD05391C5D2A17
:1004B8005E2A5F2ABC173908AE000130AE36890BB8
:1004C800622A2E08BD003308BD043D08A9003C0877
:1004D800A8003B08A7003A08A600080020002D083D
:1004E8008039B7002D35BE00AC1F7B2A7C2A7D2AB7
:1004F8003E143E080319812A822A922A3E0A031DC5
:10050800862A872A8F2A0030AD000030AC000030E0
:10051800AB000030AA00AC17AD019A2A0030AD003C
:100528000030AC000030AB000030AA002908803948
:10053800B7062935BF00A81FA22AA32AA42A3F1458
:100548003F080319A82AA92AB92A3F0A031DAD2A78
:10055800AE2AB62A0030A9000030A8000030A70053
:100568000030A600A817A901C12A0030A900003050
:10057800A8000030A7000030A60029082804270496
:100588002604031DC82AC92AE02A0030AD0000301D
:10059800AC000030AB000030AA008030AC047F30E3
:1005A800AD043708AD042D08A9002C08A8002B08B5
:1005B800A7002A08A600152C3E08031DE42AE52AF0
:1005C800EE2A0030A9000030A8000030A700003053
:1005D800A600152C3E08AE00AF012F08B1003F0859
:1005E8002E02B000031CB10330087F3EB800003073
:1005F800313DB9002D08B6002C08B5002B08B40011
:100608002A08B3000030AD000030AC000030AB0069
:100618000030AA000030BD000030BC000030BB0034
:100628000030BA00BF01542B3F0803191C2B1D2BA7
:10063800372B0130B335B40DB50DB60D890B1E2B14
:100648000130AA35AB0DAC0DAD0D890B252BBD1FA7
:100658002E2B2F2B302B2A140130BA35BB0DBC0D95
:10066800BD0D890B312B29083602031D452B28089F
:100678003502031D452B27083402031D452B260888
:100688003302031C482B492B522B3D172608B30273
:100698002708B43B2808B53B2908B63B0130BF07FB
:1006A8001A303F02031C592B5A2B182B36083504D5
:1006B800340433040319612B622B7B2B3A147B2BF4
:1006C8000130AA35AB0DAC0DAD0D890B652BBD1FE7
:1006D8006E2B6F2B702B2A140130BA35BB0DBC0D55
:1006E800BD0D890B712BFF30B807FF30B93DAC1F2A
:1006F8007E2B7F2B642BBF01BD1F832B842BA02B4C
:10070800FF303A05AE00FF303B05AF00FF303C0537
:10071800B0007F303D05B100310830042F042E04AD
:100728000319972B982B9B2B0130BF00A02B2A1C59
:100738009E2B9F2BA02B982B3F080319A42BA52B8E
:10074800CB2B0130AA070030AB3DAC3DAD3D2D1C95
:10075800AE2BAF2BCB2B2A08AE002B08AF002C08F2
:10076800B0002D08B1000130B200B137B00CAF0CA9
:10077800AE0CB20BB92B3108AD003008AC002F0815
:10078800AB002E08AA000130B8070030B93D39087F
:10079800803AAE0080302E02031DD42BFF30380281
:1007A800031CD72BD82BE52BFF302000B8000030D6
:1007B800B9000030AD000030AC000030AB000030B4
:1007C800AA0020003908803AAE0080302E02031DAE
:1007D800EF2B013038020318F22BF32BFF2B2000EC
:1007E800B801B9010030AD000030AC000030AB00FA
:1007F8000030AA00B70120003808BE003E1C052CB6
:10080800062C082CAC170A2C7F30AC053E08AE002D
:100818000130AE36890B0D2C2E08AD003708AD041B
:10082800D72A08002000A000200803191C2C1D2C22
:10083800312CF51F202C212C312C7209A2007309B0
:10084800A3007409A4007509A500A20A0319A30A44
:100858000319A40A0319A50A392C7508A5007408F8
:10086800A4007308A3007208A20075087404730436
:100878007204031D402C412C4A2C0030F500003036
:10088800F4000030F3000030F200BA2C9630A100DA
:10089800562C0130A1070130A536A40CA30CA20CDC
:1008A800890B502CFE302505031D5B2C5C2C4D2C30
:1008B8006C2C0130A1070130A2070030A33DA43DF4
:1008C800A53D0130A536A40CA30CA20C890B662CFF
:1008D800FF302505031D712C722C5D2C7C2C0130FA
:1008E800A1020130A235A30DA40DA50D890B762C0C
:1008F800A41B7F2C802C862C023021020318852C07
:10090800862C732C2118892C8A2C922CFF30A20556
:10091800FF30A3057F30A405FF30A5050310A10C07
:100928002108F600F701F801F9011830F635F70D3E
:10093800F80DF90D890B9A2C7608A2047708A30400
:100948007808A4047908A50420080319AC2CAD2C58
:10095800B22CF51FB02CB12CB22CA5172508F50028
:100968002408F4002308F3002208F2000800863166
:10097800B32684318B170B173E30F2000530F30095
:1009880087311B2784310130863152268431730820
:100998002000D7007208D60057085502031DD62C30
:1009A800560854020318D92CDA2C052D5708D500FF
:1009B8005608D4005408F2005508F300F401F50174
:1009C800003084311624843175082000A900740889
:1009D800A8007308A7007208A6004430AD007F3055
:1009E800AC00C030AB000030AA00823172228431E2
:1009F80020002908D3002808D2002708D10026089B
:100A0800D0005608F2005708F300F401F501003051
:100A180084311624843175082000AD007408AC00B8
:100A28007308AB007208AA005308A9005208A8006E
:100A38005108A7005008A6008031372084312000D3
:100A48002908C3002808C2002708C1002608C000DA
:100A58008531BF25843120004108FB004008FA0099
:100A68004B08F3004A08F20086319C268431C72CD3
:100A7800803119287B0820004B02031D452D7A0878
:100A88004A020318482D492D502D4A08023ECA0033
:100A980000304B3DCB00602D4B087B02031D562DCB
:100AA8004A087A020318592D5A2D602D4A08FE3E2D
:100AB800CA00FF304B3DCB004A08023EF000003030
:100AC8004B3DF1007B087106031D6C2D7A087006FA
:100AD80003196F2D702D802D4A08FE3EF000FF305F
:100AE8004B3DF1007B087106031D7C2D7A087006CA
:100AF800031D7F2D802D9A2D00307B0202300319B3
:100B08007A020318882D892D8D2D7B08CB007A0851
:100B1800CA0003307B02FF3003197A02031C952DAB
:100B2800962D9A2DFF30CA000330CB004A08013EAB
:100B3800F00000304B3DF1007B087106031DA62D27
:100B48007A0870060319A92DAA2DBA2D4A08FF3E66
:100B5800F000FF304B3DF1007B087106031DB62DF8
:100B68007A087006031DB92DBA2DBE2D7B08CB005F
:100B78007A08CA00080003102000420D430DC9007E
:100B88004908031DC82DC92DD22D0030C3000030DF
:100B9800C2000030C1000030C0002D2E4008C40043
:100BA8004108C5004208C6004308C7001F30C736C1
:100BB800C60CC50CC40C890BDB2D4408C800C21731
:100BC800FF30C005FF30C105FF30C2050030C30546
:100BD8009630C902C91FF12DF22D082E4908803A16
:100BE800973E0318F82DF92DFA2DC92D0130C3367B
:100BF800C20CC10CC00C890BFB2D0130C907031DA9
:100C0800062E072EFA2D1D2E20304902031C0D2E0C
:100C18000E2E182EC92D0130C035C10DC20DC30DC1
:100C2800890B102E0130C9024908031D1C2E1D2EE8
:100C38000F2E48080319212E222E2D2EC009C10976
:100C4800C209C309C00A0319C10A0319C20A031950
:100C5800C30A08002000A400A001A1017208F40042
:100C6800F5017408A2007508A300241C3C2E3D2E33
:100C7800412E2208A0072308A13D0130A235A30D6B
:100C8800890B422E0310A40C2408031D4C2E4D2E54
:100C9800392E2108F3002008F2000800F500750835
:100CA800F400F40DF40D21001D0874068339740650
:100CB8009D001D1400320032000021009D149D1873
:100CC800662E672E632E1C08F3001B08F20008002E
:100CD80020009901FC309700183096001110170871
:100CE800CD001608CC00210011142530F200073081
:100CF800F30087311B278631013020009800080057
:100D080022008C018D017F3021008C00FF308D0086
:100D1800FE3023008D001F308C00013024008D0030
:100D28008C0121009513083022009D009E010800C7
:100D38007308F5007208F400F536F40CF536F40C77
:100D480074082500980072080339F4000430F4355B
:100D5800890BAB2E1A08CF3974049A000800863123
:100D68008426863187310E278631873121278631BF
:100D78008631F02686318731062786318631FE2670
:100D8800863186316C2686310800200011104D0806
:100D9800F1004C08F0008631DF2686312000580823
:100DA80059040319D82ED92EDE2E59088A0058085E
:100DB8000A00863108002000181DE32EE42EEB2ED1
:100DC800181071089700700896001814EF2E710813
:100DD80097007008960008003F3025009A009C0193
:100DE800BF309B0001309D0099017F309800F3309F
:100DF8009E050800FF3020009B009A0191100430E6
:100E08009C000800403021009E009B019C0101309D
:100E18009D00080068302100990098012200960181
:100E280008000034003480343F340134003473083F
:100E38002000D9007208D800080016302100970059
:040E48000800080096
:020000040001F9
:04000E00E43FFF3E8E
:00000001FF
