:04000000803119280A
:100008007E1480310B1F09280A2817282100111C8B
:100018000E280F2817282000111C13281428172829
:100028008231442280317E10090080311B285D30E6
:100038008400833085001200CB001200CC0012002F
:10004800CD001200CE001200CF0020308400003016
:100058008500163083313F2380317E1020008131A6
:100068005B2920004F0803193A283B28CB28E830A1
:10007800F6000330F700003082317E2280317108AB
:10008800F5007008F4008231252280317408FA00E6
:100098007508FB000A30FB36FA0C890B4F287A08E2
:1000A800FC007B08FD007D08F5007C08F4002000BA
:1000B8004C08F7004B08F60082312522803175087C
:1000C8002000AA007408A9002935A9002A08FB0005
:1000D8002908FA00FB36FA0C7A08A9007B08AA005E
:1000E8002A087F39AA00E830F6000330F70001300B
:1000F80082317E2280317108F5007008F400823167
:10010800252280317408FA007508FB000A30FB3696
:10011800FA0C890B8B287A08FC007B08FD007D0807
:10012800F5007C08F40020004E08F7004D08F600A2
:1001380082312522803175082000A8007408A700A4
:100148002735A7002808FB002708FA00FB36FA0C19
:100158007A08A7007B08A80028087F39A800803003
:1001680083311E23803120002A0883311E238031E9
:100178002000290883311E2380312000280883317C
:100188001E2380312000270883311E238031080078
:100198004B292C08031DD128D228E0282B08031D41
:1001A800D628D728D928CF01E0282B03031DDD281E
:1001B800DE28E0280130CF002000B3015A2903309F
:1001C8003306031DE828E928E02808302C02031824
:1001D800EE28EF28E0282C08A6002B08A500260802
:1001E800B7002508B600823162228031E02803304A
:1001F8003306031D00290129E02880302C0203184A
:1002080006290729E0282C08CE002B08CD00E83065
:10021800B6000330B7004E08B9004D08B800813168
:100228009F21803120003708CE003608CD00E02815
:1002380003303306031D21292229E02880302C02AF
:10024800031827292829E0282C08CC002B08CB00E4
:10025800E830B6000330B7004C08B9004B08B800C6
:1002680081319F21803120003708CC003608CB002F
:10027800E028B30103302000BE000830BD0077300D
:10028800890B4429BD0B4429BE0B44295A29200057
:100298002008803A0319CD28013A0319E328033AC4
:1002A8000319FB28013A03191C293D29080082314A
:1002B800992281318B170B1735302000B60000309A
:1002C800B700833145238131833162238131003A7C
:1002D80003196F29702968298231F522813120009C
:1002E800B4000330330203187A297B298D29330897
:1002F800203E86008701340881000130B3070330AF
:100308003306031D882989299C298131DA21813105
:10031800682903302000C2000830C1007730890BFB
:100328009329C10B9329C20B93292000B301682993
:100338006829803119282000BA01BB013608370422
:100348000319A729A829D5290130BC00B2290130F1
:10035800B635B70D890BAC290130BC07B71FB529D5
:10036800B629AB290130BA35BB0D890BB729370837
:100378003902031DC12936083802031CC429C529BE
:10038800CA293608B8023708B93B3A140130B736DB
:10039800B60C890BCB290130BC02031DD429D52901
:1003A800B6293B08B7003A08B60008002000210823
:1003B800AC002208AB0080302B02031CE429E5299D
:1003C800E629FF2980302C02031CEB29EC29ED29B2
:1003D800FF292B35AB002C08C0002B08BF00C03606
:1003E800BF0C3F08AB004008AC002C087F39AC00BC
:1003F8008031CC2081310800083023009F009030E4
:100408009D0024309E0067309B009C010030200036
:10041800B6000030B700833151238231003020000C
:10042800B6000030B70083314B2382310030200002
:10043800B6000030B7008331572382312000B50160
:100448000800F801F901741C2A2A2B2A2F2A760899
:10045800F8077708F93D0130F635F70D890B302A92
:100468000130F536F40C890B352A74087504031D20
:100478003E2A3F2A272A7908F5007808F400080060
:10048800200011103008F1002F08F0008231E4221A
:10049800823101302000AD070030AE3D00302E0221
:1004A800043003192D02031C5A2A5B2A612A83315E
:1004B800112382312000AD01AE0108002000370869
:1004C800B9003608B800B936B80CB936B80C3808CF
:1004D80025009800200036080339B8000430B835E4
:1004E800890B732A25001A08CF3920003804250003
:1004F8009A000800F3007308F200F20DF20D2100D3
:100508001D087206833972069D001D140330890B7D
:100518008B2A000021009D149D18932A942A902A62
:100528001C08F1001B08F00008008231CB22823140
:100538008331382382318331672382318331042325
:1005480082318331302382318331282382318231D1
:10055800B2228231823100228231080020009901C2
:100568000B309700DC30960011101708B000160801
:10057800AF00210011146B302000B6000330B70023
:100588008331452382313130200098000800220051
:100598008C018D017F3021008C00FF308D00DA3016
:1005A80023008D001F308C00023024008D008C0148
:1005B80021009513883022009D0001309E0008001C
:1005C8002000181DE82AE92AF02A18107108970057
:1005D800700896001814F42A71089700700896009D
:1005E80008002000911EF92AFA2AF52AB5012300ED
:1005F8009D1CFF2A002B022B1D121D16190808002E
:100608000C3025009A009C0180309B0001309D0031
:1006180099019801F3309E0508002000430844041E
:100628000319172B182B1D2B44088A0043080A00AE
:1006380083310800F0002000111E232B242B1F2BD0
:10064800700823009A000800FF3020009B009A01E0
:10065800911004309C000800903021009E009B01FE
:100668009C0101309D00080070302100990098011C
:10067800220096010800640080010131890B402B9B
:10068800003420003708C4003608C30008002000E2
:100698003708C8003608C700080020003708CA0015
:1006A8003608C900080020003708C6003608C5000B
:1006B8000800013400340134003401342000110EE4
:1006C800890C01390800163021009700080008003D
:020000040001F9
:04000E00E43FFF3E8E
:00000001FF
